{
  "contractName": "Notary",
  "abi": [
    {
      "constant": false,
      "inputs": [
        {
          "internalType": "bytes32",
          "name": "hash",
          "type": "bytes32"
        }
      ],
      "name": "addDocHash",
      "outputs": [],
      "payable": true,
      "stateMutability": "payable",
      "type": "function"
    },
    {
      "constant": true,
      "inputs": [
        {
          "internalType": "bytes32",
          "name": "hash",
          "type": "bytes32"
        }
      ],
      "name": "findDocHash",
      "outputs": [
        {
          "internalType": "uint256",
          "name": "",
          "type": "uint256"
        },
        {
          "internalType": "uint256",
          "name": "",
          "type": "uint256"
        }
      ],
      "payable": false,
      "stateMutability": "view",
      "type": "function"
    },
    {
      "constant": true,
      "inputs": [],
      "name": "getBalance",
      "outputs": [
        {
          "internalType": "uint256",
          "name": "",
          "type": "uint256"
        }
      ],
      "payable": false,
      "stateMutability": "view",
      "type": "function"
    },
    {
      "constant": false,
      "inputs": [],
      "name": "sacar",
      "outputs": [],
      "payable": false,
      "stateMutability": "nonpayable",
      "type": "function"
    },
    {
      "constant": true,
      "inputs": [],
      "name": "getOwner",
      "outputs": [
        {
          "internalType": "address",
          "name": "owner",
          "type": "address"
        }
      ],
      "payable": false,
      "stateMutability": "view",
      "type": "function"
    }
  ],
  "bytecode": "0x6080604052336000806101000a81548173ffffffffffffffffffffffffffffffffffffffff021916908373ffffffffffffffffffffffffffffffffffffffff16021790555034801561005057600080fd5b50610422806100606000396000f3fe60806040526004361061004a5760003560e01c806312065fe01461004f578063133a48f31461007a5780634cf00d3f146100a8578063893d20e8146100fe578063a51068c814610155575b600080fd5b34801561005b57600080fd5b5061006461016c565b6040518082815260200191505060405180910390f35b6100a66004803603602081101561009057600080fd5b8101908080359060200190929190505050610174565b005b3480156100b457600080fd5b506100e1600480360360208110156100cb57600080fd5b810190808035906020019092919050505061023e565b604051808381526020018281526020019250505060405180910390f35b34801561010a57600080fd5b50610113610278565b604051808273ffffffffffffffffffffffffffffffffffffffff1673ffffffffffffffffffffffffffffffffffffffff16815260200191505060405180910390f35b34801561016157600080fd5b5061016a6102a1565b005b600047905090565b655af3107a40003410156101f0576040517f08c379a00000000000000000000000000000000000000000000000000000000081526004018080602001828103825260128152602001807f56616c6f7220696e737566696369656e7465000000000000000000000000000081525060200191505060405180910390fd5b6101f86103d3565b6040518060400160405280428152602001438152509050806001600084815260200190815260200160002060008201518160000155602082015181600101559050505050565b6000806001600084815260200190815260200160002060000154600160008581526020019081526020016000206001015491509150915091565b60008060009054906101000a900473ffffffffffffffffffffffffffffffffffffffff16905090565b6000809054906101000a900473ffffffffffffffffffffffffffffffffffffffff1673ffffffffffffffffffffffffffffffffffffffff163373ffffffffffffffffffffffffffffffffffffffff1614610363576040517f08c379a000000000000000000000000000000000000000000000000000000000815260040180806020018281038252600e8152602001807f4170656e6173206f20646f6e6f2100000000000000000000000000000000000081525060200191505060405180910390fd5b60004790506000809054906101000a900473ffffffffffffffffffffffffffffffffffffffff1673ffffffffffffffffffffffffffffffffffffffff166108fc829081150290604051600060405180830381858888f193505050501580156103cf573d6000803e3d6000fd5b5050565b60405180604001604052806000815260200160008152509056fea265627a7a723158205e98050bd4e010a209d29627f93b280a461f9f74f2636f80f760bd9b69a7e43064736f6c63430005100032",
  "source": "pragma solidity ^0.5.4;\ncontract Notary {\n    struct Record {\n        uint256 mineTime;\n        uint256 blockNumber;\n    }\n    address payable dono = msg.sender;\n    modifier apenasDono {\n        require(msg.sender == dono, \"Apenas o dono!\");\n        _;\n    }\n\n    mapping(bytes32 => Record) private docHashes;\n\n    function addDocHash(bytes32 hash) public payable {\n        require(msg.value >= 0.0001 ether, \"Valor insuficiente\");\n        Record memory newRecord = Record(now, block.number);\n        docHashes[hash] = newRecord;\n    }\n    function findDocHash(bytes32 hash) public view returns (uint256, uint256) {\n        return (docHashes[hash].mineTime, docHashes[hash].blockNumber);\n    }\n\n    function getBalance() public view returns (uint256) {\n        return address(this).balance;\n    }\n    function sacar() public apenasDono {\n        uint256 amount = address(this).balance;\n        dono.transfer(amount);\n    }\n\n    function getOwner() public view returns (address owner) {\n        return dono;\n    }\n}\n",
  "sourcePath": "I:\\WEB\\medium\\contracts\\Notary.sol",
  "compiler": {
    "name": "solc",
    "version": "0.5.16+commit.9c3226ce.Emscripten.clang"
  },
  "schemaVersion": "3.0.23",
  "updatedAt": "2020-02-16T20:30:27.245Z",
  "devdoc": {
    "methods": {}
  },
  "userdoc": {
    "methods": {}
  }
}